{
  "_format": "hh-sol-artifact-1",
  "contractName": "Electron",
  "sourceName": "contracts/Electron.sol",
  "abi": [
    {
      "anonymous": false,
      "inputs": [
        {
          "indexed": false,
          "internalType": "bytes",
          "name": "name",
          "type": "bytes"
        },
        {
          "indexed": false,
          "internalType": "bytes",
          "name": "email",
          "type": "bytes"
        },
        {
          "indexed": false,
          "internalType": "bytes",
          "name": "pass",
          "type": "bytes"
        }
      ],
      "name": "useradded",
      "type": "event"
    },
    {
      "inputs": [
        {
          "internalType": "bytes32",
          "name": "_name",
          "type": "bytes32"
        },
        {
          "internalType": "bytes32",
          "name": "_email",
          "type": "bytes32"
        },
        {
          "internalType": "bytes32",
          "name": "_pass",
          "type": "bytes32"
        }
      ],
      "name": "addUser",
      "outputs": [
        {
          "internalType": "bool",
          "name": "",
          "type": "bool"
        }
      ],
      "stateMutability": "nonpayable",
      "type": "function"
    },
    {
      "inputs": [
        {
          "internalType": "bytes32",
          "name": "usernameHash",
          "type": "bytes32"
        },
        {
          "internalType": "bytes32",
          "name": "passwordHash",
          "type": "bytes32"
        }
      ],
      "name": "checkUser",
      "outputs": [
        {
          "internalType": "bool",
          "name": "",
          "type": "bool"
        }
      ],
      "stateMutability": "view",
      "type": "function"
    },
    {
      "inputs": [],
      "name": "getUsers",
      "outputs": [
        {
          "components": [
            {
              "internalType": "uint256",
              "name": "id",
              "type": "uint256"
            },
            {
              "internalType": "bytes32",
              "name": "usernameHash",
              "type": "bytes32"
            },
            {
              "internalType": "bytes32",
              "name": "emailHash",
              "type": "bytes32"
            },
            {
              "internalType": "bytes32",
              "name": "passwordHash",
              "type": "bytes32"
            }
          ],
          "internalType": "struct Electron.user[]",
          "name": "",
          "type": "tuple[]"
        }
      ],
      "stateMutability": "view",
      "type": "function"
    }
  ],
  "bytecode": "0x6080604052600160005534801561001557600080fd5b506105b3806100256000396000f3fe608060405234801561001057600080fd5b50600436106100405760003560e01c8062ce8e3e146100455780630c19b7c9146100635780631dfd331e14610093575b600080fd5b61004d6100c3565b60405161005a91906103bb565b60405180910390f35b61007d6004803603810190610078919061040e565b61014a565b60405161008a919061047c565b60405180910390f35b6100ad60048036038101906100a89190610497565b6101eb565b6040516100ba919061047c565b60405180910390f35b60606001805480602002602001604051908101604052809291908181526020016000905b828210156101415783829060005260206000209060040201604051806080016040529081600082015481526020016001820154815260200160028201548152602001600382015481525050815260200190600101906100e7565b50505050905090565b6000806040518060800160405280600054815260200186815260200185815260200184815250905060018190806001815401808255809150506001900390600052602060002090600402016000909190919091506000820151816000015560208201518160010155604082015181600201556060820151816003015550506000808154809291906101da90610506565b919050555060019150509392505050565b600080600090505b6001805490508110156102795783600182815481106102155761021461054e565b5b9060005260206000209060040201600101540361026c5782600182815481106102415761024061054e565b5b9060005260206000209060040201600301540361026257600191505061027f565b600091505061027f565b80806001019150506101f3565b50600090505b92915050565b600081519050919050565b600082825260208201905092915050565b6000819050602082019050919050565b6000819050919050565b6102c4816102b1565b82525050565b6000819050919050565b6102dd816102ca565b82525050565b6080820160008201516102f960008501826102bb565b50602082015161030c60208501826102d4565b50604082015161031f60408501826102d4565b50606082015161033260608501826102d4565b50505050565b600061034483836102e3565b60808301905092915050565b6000602082019050919050565b600061036882610285565b6103728185610290565b935061037d836102a1565b8060005b838110156103ae5781516103958882610338565b97506103a083610350565b925050600181019050610381565b5085935050505092915050565b600060208201905081810360008301526103d5818461035d565b905092915050565b600080fd5b6103eb816102ca565b81146103f657600080fd5b50565b600081359050610408816103e2565b92915050565b600080600060608486031215610427576104266103dd565b5b6000610435868287016103f9565b9350506020610446868287016103f9565b9250506040610457868287016103f9565b9150509250925092565b60008115159050919050565b61047681610461565b82525050565b6000602082019050610491600083018461046d565b92915050565b600080604083850312156104ae576104ad6103dd565b5b60006104bc858286016103f9565b92505060206104cd858286016103f9565b9150509250929050565b7f4e487b7100000000000000000000000000000000000000000000000000000000600052601160045260246000fd5b6000610511826102b1565b91507fffffffffffffffffffffffffffffffffffffffffffffffffffffffffffffffff8203610543576105426104d7565b5b600182019050919050565b7f4e487b7100000000000000000000000000000000000000000000000000000000600052603260045260246000fdfea26469706673582212203ca055c478f00162ce3ac2233e35c231963bb9910875472d44b80bbd57e71ed464736f6c63430008180033",
  "linkReferences": {},
  "deployedLinkReferences": {}
}