{
  "_format": "hh-sol-artifact-1",
  "contractName": "Electron",
  "sourceName": "contracts/Electron (1).sol",
  "abi": [
    {
      "anonymous": false,
      "inputs": [
        {
          "indexed": false,
          "internalType": "uint256",
          "name": "id",
          "type": "uint256"
        },
        {
          "indexed": false,
          "internalType": "string",
          "name": "name",
          "type": "string"
        },
        {
          "indexed": false,
          "internalType": "string",
          "name": "price",
          "type": "string"
        }
      ],
      "name": "ProductAdded",
      "type": "event"
    },
    {
      "anonymous": false,
      "inputs": [
        {
          "indexed": false,
          "internalType": "uint256",
          "name": "id",
          "type": "uint256"
        }
      ],
      "name": "ProductDeleted",
      "type": "event"
    },
    {
      "anonymous": false,
      "inputs": [
        {
          "indexed": false,
          "internalType": "uint256",
          "name": "id",
          "type": "uint256"
        },
        {
          "indexed": false,
          "internalType": "string",
          "name": "field",
          "type": "string"
        },
        {
          "indexed": false,
          "internalType": "string",
          "name": "newValue",
          "type": "string"
        }
      ],
      "name": "ProductUpdated",
      "type": "event"
    },
    {
      "anonymous": false,
      "inputs": [
        {
          "indexed": false,
          "internalType": "string",
          "name": "name",
          "type": "string"
        },
        {
          "indexed": false,
          "internalType": "string",
          "name": "email",
          "type": "string"
        },
        {
          "indexed": false,
          "internalType": "string",
          "name": "pass",
          "type": "string"
        }
      ],
      "name": "useradded",
      "type": "event"
    },
    {
      "inputs": [
        {
          "internalType": "uint256",
          "name": "_user_id",
          "type": "uint256"
        },
        {
          "internalType": "string",
          "name": "_order_total",
          "type": "string"
        },
        {
          "internalType": "string",
          "name": "_status",
          "type": "string"
        },
        {
          "internalType": "string",
          "name": "_timestamp",
          "type": "string"
        }
      ],
      "name": "addOrder",
      "outputs": [
        {
          "internalType": "bool",
          "name": "",
          "type": "bool"
        }
      ],
      "stateMutability": "nonpayable",
      "type": "function"
    },
    {
      "inputs": [
        {
          "internalType": "string",
          "name": "_name",
          "type": "string"
        },
        {
          "internalType": "string",
          "name": "_description",
          "type": "string"
        },
        {
          "internalType": "string",
          "name": "_price",
          "type": "string"
        },
        {
          "internalType": "string",
          "name": "_stock",
          "type": "string"
        },
        {
          "internalType": "string",
          "name": "_category",
          "type": "string"
        },
        {
          "internalType": "string",
          "name": "_image",
          "type": "string"
        }
      ],
      "name": "addProduct",
      "outputs": [
        {
          "internalType": "bool",
          "name": "",
          "type": "bool"
        }
      ],
      "stateMutability": "nonpayable",
      "type": "function"
    },
    {
      "inputs": [
        {
          "internalType": "uint256",
          "name": "_user_id",
          "type": "uint256"
        },
        {
          "internalType": "string",
          "name": "_product_id",
          "type": "string"
        },
        {
          "internalType": "string",
          "name": "_quantity",
          "type": "string"
        }
      ],
      "name": "addToCart",
      "outputs": [
        {
          "internalType": "bool",
          "name": "",
          "type": "bool"
        }
      ],
      "stateMutability": "nonpayable",
      "type": "function"
    },
    {
      "inputs": [
        {
          "internalType": "string",
          "name": "_name",
          "type": "string"
        },
        {
          "internalType": "string",
          "name": "_email",
          "type": "string"
        },
        {
          "internalType": "string",
          "name": "_pass",
          "type": "string"
        },
        {
          "internalType": "string",
          "name": "role",
          "type": "string"
        }
      ],
      "name": "addUser",
      "outputs": [
        {
          "internalType": "bool",
          "name": "",
          "type": "bool"
        }
      ],
      "stateMutability": "nonpayable",
      "type": "function"
    },
    {
      "inputs": [
        {
          "internalType": "string",
          "name": "username",
          "type": "string"
        },
        {
          "internalType": "string",
          "name": "passwordHash",
          "type": "string"
        }
      ],
      "name": "checkUser",
      "outputs": [
        {
          "internalType": "bool",
          "name": "",
          "type": "bool"
        }
      ],
      "stateMutability": "view",
      "type": "function"
    },
    {
      "inputs": [
        {
          "internalType": "uint256",
          "name": "_user_id",
          "type": "uint256"
        }
      ],
      "name": "clearUserCart",
      "outputs": [
        {
          "internalType": "bool",
          "name": "",
          "type": "bool"
        }
      ],
      "stateMutability": "nonpayable",
      "type": "function"
    },
    {
      "inputs": [
        {
          "internalType": "uint256",
          "name": "_id",
          "type": "uint256"
        }
      ],
      "name": "deleteProduct",
      "outputs": [
        {
          "internalType": "bool",
          "name": "",
          "type": "bool"
        }
      ],
      "stateMutability": "nonpayable",
      "type": "function"
    },
    {
      "inputs": [],
      "name": "getCart",
      "outputs": [
        {
          "components": [
            {
              "internalType": "uint256",
              "name": "id",
              "type": "uint256"
            },
            {
              "internalType": "uint256",
              "name": "user_id",
              "type": "uint256"
            },
            {
              "internalType": "string",
              "name": "product_id",
              "type": "string"
            },
            {
              "internalType": "string",
              "name": "quantity",
              "type": "string"
            }
          ],
          "internalType": "struct Electron.cart[]",
          "name": "",
          "type": "tuple[]"
        }
      ],
      "stateMutability": "view",
      "type": "function"
    },
    {
      "inputs": [],
      "name": "getOrders",
      "outputs": [
        {
          "components": [
            {
              "internalType": "uint256",
              "name": "id",
              "type": "uint256"
            },
            {
              "internalType": "uint256",
              "name": "user_id",
              "type": "uint256"
            },
            {
              "internalType": "string",
              "name": "order_total",
              "type": "string"
            },
            {
              "internalType": "string",
              "name": "status",
              "type": "string"
            },
            {
              "internalType": "string",
              "name": "timestamp",
              "type": "string"
            }
          ],
          "internalType": "struct Electron.orders[]",
          "name": "",
          "type": "tuple[]"
        }
      ],
      "stateMutability": "view",
      "type": "function"
    },
    {
      "inputs": [
        {
          "internalType": "uint256",
          "name": "_id",
          "type": "uint256"
        }
      ],
      "name": "getProductById",
      "outputs": [
        {
          "components": [
            {
              "internalType": "uint256",
              "name": "id",
              "type": "uint256"
            },
            {
              "internalType": "string",
              "name": "name",
              "type": "string"
            },
            {
              "internalType": "string",
              "name": "description",
              "type": "string"
            },
            {
              "internalType": "string",
              "name": "price",
              "type": "string"
            },
            {
              "internalType": "string",
              "name": "stock",
              "type": "string"
            },
            {
              "internalType": "string",
              "name": "category",
              "type": "string"
            },
            {
              "internalType": "string",
              "name": "image",
              "type": "string"
            },
            {
              "internalType": "bool",
              "name": "active",
              "type": "bool"
            }
          ],
          "internalType": "struct Electron.products",
          "name": "",
          "type": "tuple"
        }
      ],
      "stateMutability": "view",
      "type": "function"
    },
    {
      "inputs": [],
      "name": "getProducts",
      "outputs": [
        {
          "components": [
            {
              "internalType": "uint256",
              "name": "id",
              "type": "uint256"
            },
            {
              "internalType": "string",
              "name": "name",
              "type": "string"
            },
            {
              "internalType": "string",
              "name": "description",
              "type": "string"
            },
            {
              "internalType": "string",
              "name": "price",
              "type": "string"
            },
            {
              "internalType": "string",
              "name": "stock",
              "type": "string"
            },
            {
              "internalType": "string",
              "name": "category",
              "type": "string"
            },
            {
              "internalType": "string",
              "name": "image",
              "type": "string"
            },
            {
              "internalType": "bool",
              "name": "active",
              "type": "bool"
            }
          ],
          "internalType": "struct Electron.products[]",
          "name": "",
          "type": "tuple[]"
        }
      ],
      "stateMutability": "view",
      "type": "function"
    },
    {
      "inputs": [
        {
          "internalType": "string",
          "name": "username",
          "type": "string"
        }
      ],
      "name": "getUserByUsername",
      "outputs": [
        {
          "components": [
            {
              "internalType": "uint256",
              "name": "id",
              "type": "uint256"
            },
            {
              "internalType": "string",
              "name": "username",
              "type": "string"
            },
            {
              "internalType": "string",
              "name": "email",
              "type": "string"
            },
            {
              "internalType": "string",
              "name": "role",
              "type": "string"
            },
            {
              "internalType": "string",
              "name": "passwordHash",
              "type": "string"
            }
          ],
          "internalType": "struct Electron.user",
          "name": "",
          "type": "tuple"
        }
      ],
      "stateMutability": "view",
      "type": "function"
    },
    {
      "inputs": [
        {
          "internalType": "uint256",
          "name": "_user_id",
          "type": "uint256"
        }
      ],
      "name": "getUserCart",
      "outputs": [
        {
          "components": [
            {
              "internalType": "uint256",
              "name": "id",
              "type": "uint256"
            },
            {
              "internalType": "uint256",
              "name": "user_id",
              "type": "uint256"
            },
            {
              "internalType": "string",
              "name": "product_id",
              "type": "string"
            },
            {
              "internalType": "string",
              "name": "quantity",
              "type": "string"
            }
          ],
          "internalType": "struct Electron.cart[]",
          "name": "",
          "type": "tuple[]"
        }
      ],
      "stateMutability": "view",
      "type": "function"
    },
    {
      "inputs": [
        {
          "internalType": "uint256",
          "name": "_user_id",
          "type": "uint256"
        }
      ],
      "name": "getUserOrders",
      "outputs": [
        {
          "components": [
            {
              "internalType": "uint256",
              "name": "id",
              "type": "uint256"
            },
            {
              "internalType": "uint256",
              "name": "user_id",
              "type": "uint256"
            },
            {
              "internalType": "string",
              "name": "order_total",
              "type": "string"
            },
            {
              "internalType": "string",
              "name": "status",
              "type": "string"
            },
            {
              "internalType": "string",
              "name": "timestamp",
              "type": "string"
            }
          ],
          "internalType": "struct Electron.orders[]",
          "name": "",
          "type": "tuple[]"
        }
      ],
      "stateMutability": "view",
      "type": "function"
    },
    {
      "inputs": [],
      "name": "getUsers",
      "outputs": [
        {
          "components": [
            {
              "internalType": "uint256",
              "name": "id",
              "type": "uint256"
            },
            {
              "internalType": "string",
              "name": "username",
              "type": "string"
            },
            {
              "internalType": "string",
              "name": "email",
              "type": "string"
            },
            {
              "internalType": "string",
              "name": "role",
              "type": "string"
            },
            {
              "internalType": "string",
              "name": "passwordHash",
              "type": "string"
            }
          ],
          "internalType": "struct Electron.user[]",
          "name": "",
          "type": "tuple[]"
        }
      ],
      "stateMutability": "view",
      "type": "function"
    },
    {
      "inputs": [
        {
          "internalType": "uint256",
          "name": "_order_id",
          "type": "uint256"
        },
        {
          "internalType": "string",
          "name": "_status",
          "type": "string"
        }
      ],
      "name": "updateOrderStatus",
      "outputs": [
        {
          "internalType": "bool",
          "name": "",
          "type": "bool"
        }
      ],
      "stateMutability": "nonpayable",
      "type": "function"
    },
    {
      "inputs": [
        {
          "internalType": "uint256",
          "name": "_id",
          "type": "uint256"
        },
        {
          "internalType": "string",
          "name": "_newPrice",
          "type": "string"
        }
      ],
      "name": "updateProductPrice",
      "outputs": [
        {
          "internalType": "bool",
          "name": "",
          "type": "bool"
        }
      ],
      "stateMutability": "nonpayable",
      "type": "function"
    },
    {
      "inputs": [
        {
          "internalType": "uint256",
          "name": "_id",
          "type": "uint256"
        },
        {
          "internalType": "string",
          "name": "_newStock",
          "type": "string"
        }
      ],
      "name": "updateProductStock",
      "outputs": [
        {
          "internalType": "bool",
          "name": "",
          "type": "bool"
        }
      ],
      "stateMutability": "nonpayable",
      "type": "function"
    }
  ],
  "bytecode": "0x6080604052600160005560016002556001600555600160075534801561002457600080fd5b50613f99806100346000396000f3fe608060405234801561001057600080fd5b50600436106101155760003560e01c80637669fe29116100a2578063b51c0b6511610071578063b51c0b6514610354578063b56559b214610384578063c29b2f20146103b4578063ed90c7b7146103d2578063f0f610991461040257610115565b80637669fe2914610294578063816863dd146102c45780639f42af63146102f4578063b04458f61461032457610115565b80632e2dc43e116100e95780632e2dc43e146101b657806332254819146101d45780633283acc6146102045780633f70c2b4146102345780633ffdaac61461026457610115565b8062ce8e3e1461011a57806301cda3ac14610138578063205fdde61461016857806321627dad14610198575b600080fd5b610122610432565b60405161012f9190612acb565b60405180910390f35b610152600480360381019061014d9190612c36565b6106e3565b60405161015f9190612d28565b60405180910390f35b610182600480360381019061017d9190612d6f565b6108a4565b60405161018f9190612d28565b60405180910390f35b6101a0610971565b6040516101ad9190612ef7565b60405180910390f35b6101be610b08565b6040516101cb919061305f565b60405180910390f35b6101ee60048036038101906101e99190612d6f565b610d31565b6040516101fb9190612d28565b60405180910390f35b61021e60048036038101906102199190613081565b610e73565b60405161022b919061305f565b60405180910390f35b61024e60048036038101906102499190613081565b6111a1565b60405161025b9190613190565b60405180910390f35b61027e600480360381019061027991906131b2565b611636565b60405161028b9190612d28565b60405180910390f35b6102ae60048036038101906102a99190613081565b6116f0565b6040516102bb9190612ef7565b60405180910390f35b6102de60048036038101906102d9919061323d565b61198c565b6040516102eb9190612d28565b60405180910390f35b61030e600480360381019061030991906132f8565b611a63565b60405161031b91906133cc565b60405180910390f35b61033e60048036038101906103399190613081565b611d97565b60405161034b9190612d28565b60405180910390f35b61036e600480360381019061036991906133ee565b611e58565b60405161037b9190612d28565b60405180910390f35b61039e60048036038101906103999190613466565b611f28565b6040516103ab9190612d28565b60405180910390f35b6103bc6120ac565b6040516103c99190613730565b60405180910390f35b6103ec60048036038101906103e79190613081565b6125b8565b6040516103f99190612d28565b60405180910390f35b61041c60048036038101906104179190612d6f565b6126c6565b6040516104299190612d28565b60405180910390f35b60606001805480602002602001604051908101604052809291908181526020016000905b828210156106da57838290600052602060002090600502016040518060a00160405290816000820154815260200160018201805461049390613781565b80601f01602080910402602001604051908101604052809291908181526020018280546104bf90613781565b801561050c5780601f106104e15761010080835404028352916020019161050c565b820191906000526020600020905b8154815290600101906020018083116104ef57829003601f168201915b5050505050815260200160028201805461052590613781565b80601f016020809104026020016040519081016040528092919081815260200182805461055190613781565b801561059e5780601f106105735761010080835404028352916020019161059e565b820191906000526020600020905b81548152906001019060200180831161058157829003601f168201915b505050505081526020016003820180546105b790613781565b80601f01602080910402602001604051908101604052809291908181526020018280546105e390613781565b80156106305780601f1061060557610100808354040283529160200191610630565b820191906000526020600020905b81548152906001019060200180831161061357829003601f168201915b5050505050815260200160048201805461064990613781565b80601f016020809104026020016040519081016040528092919081815260200182805461067590613781565b80156106c25780601f10610697576101008083540402835291602001916106c2565b820191906000526020600020905b8154815290600101906020018083116106a557829003601f168201915b50505050508152505081526020019060010190610456565b50505050905090565b600080600090505b60018054905081101561078757848051906020012060018281548110610714576107136137b2565b5b90600052602060002090600502016002016040516107329190613884565b60405180910390200361077a576040517f08c379a0000000000000000000000000000000000000000000000000000000008152600401610771906138f8565b60405180910390fd5b80806001019150506106eb565b5060006040518060a00160405280600054815260200187815260200186815260200184815260200185815250905060018190806001815401808255809150506001900390600052602060002090600502016000909190919091506000820151816000015560208201518160010190816108009190613ac4565b5060408201518160020190816108169190613ac4565b50606082015181600301908161082c9190613ac4565b5060808201518160040190816108429190613ac4565b5050507f5f49abede110206ead4989cb728efd684d69b9b21ee7c9672473b65d494b8d4886868660405161087893929190613bcf565b60405180910390a160008081548092919061089290613c4a565b91905055506001915050949350505050565b600080600090505b60068054905081101561092f5783600682815481106108ce576108cd6137b2565b5b906000526020600020906005020160000154036109225782600682815481106108fa576108f96137b2565b5b906000526020600020906005020160030190816109179190613ac4565b50600191505061096b565b80806001019150506108ac565b506040517f08c379a000000000000000000000000000000000000000000000000000000000815260040161096290613cde565b60405180910390fd5b92915050565b60606004805480602002602001604051908101604052809291908181526020016000905b82821015610aff578382906000526020600020906004020160405180608001604052908160008201548152602001600182015481526020016002820180546109dc90613781565b80601f0160208091040260200160405190810160405280929190818152602001828054610a0890613781565b8015610a555780601f10610a2a57610100808354040283529160200191610a55565b820191906000526020600020905b815481529060010190602001808311610a3857829003601f168201915b50505050508152602001600382018054610a6e90613781565b80601f0160208091040260200160405190810160405280929190818152602001828054610a9a90613781565b8015610ae75780601f10610abc57610100808354040283529160200191610ae7565b820191906000526020600020905b815481529060010190602001808311610aca57829003601f168201915b50505050508152505081526020019060010190610995565b50505050905090565b60606006805480602002602001604051908101604052809291908181526020016000905b82821015610d2857838290600052602060002090600502016040518060a00160405290816000820154815260200160018201548152602001600282018054610b7390613781565b80601f0160208091040260200160405190810160405280929190818152602001828054610b9f90613781565b8015610bec5780601f10610bc157610100808354040283529160200191610bec565b820191906000526020600020905b815481529060010190602001808311610bcf57829003601f168201915b50505050508152602001600382018054610c0590613781565b80601f0160208091040260200160405190810160405280929190818152602001828054610c3190613781565b8015610c7e5780601f10610c5357610100808354040283529160200191610c7e565b820191906000526020600020905b815481529060010190602001808311610c6157829003601f168201915b50505050508152602001600482018054610c9790613781565b80601f0160208091040260200160405190810160405280929190818152602001828054610cc390613781565b8015610d105780601f10610ce557610100808354040283529160200191610d10565b820191906000526020600020905b815481529060010190602001808311610cf357829003601f168201915b50505050508152505081526020019060010190610b2c565b50505050905090565b600080600090505b600380549050811015610e31578360038281548110610d5b57610d5a6137b2565b5b906000526020600020906008020160000154148015610da9575060038181548110610d8957610d886137b2565b5b906000526020600020906008020160070160009054906101000a900460ff165b15610e24578260038281548110610dc357610dc26137b2565b5b90600052602060002090600802016004019081610de09190613ac4565b507f7271245d4c0e6ecb7b215a1e937a2779d1aeb51318c042c9b05d0a446a5880098484604051610e12929190613d59565b60405180910390a16001915050610e6d565b8080600101915050610d39565b506040517f08c379a0000000000000000000000000000000000000000000000000000000008152600401610e6490613de8565b60405180910390fd5b92915050565b60606000805b600680549050811015610ece578360068281548110610e9b57610e9a6137b2565b5b90600052602060002090600502016001015403610ec1578180610ebd90613c4a565b9250505b8080600101915050610e79565b5060008167ffffffffffffffff811115610eeb57610eea612b0b565b5b604051908082528060200260200182016040528015610f2457816020015b610f11612808565b815260200190600190039081610f095790505b5090506000805b600680549050811015611195578560068281548110610f4d57610f4c6137b2565b5b906000526020600020906005020160010154036111885760068181548110610f7857610f776137b2565b5b90600052602060002090600502016040518060a00160405290816000820154815260200160018201548152602001600282018054610fb590613781565b80601f0160208091040260200160405190810160405280929190818152602001828054610fe190613781565b801561102e5780601f106110035761010080835404028352916020019161102e565b820191906000526020600020905b81548152906001019060200180831161101157829003601f168201915b5050505050815260200160038201805461104790613781565b80601f016020809104026020016040519081016040528092919081815260200182805461107390613781565b80156110c05780601f10611095576101008083540402835291602001916110c0565b820191906000526020600020905b8154815290600101906020018083116110a357829003601f168201915b505050505081526020016004820180546110d990613781565b80601f016020809104026020016040519081016040528092919081815260200182805461110590613781565b80156111525780601f1061112757610100808354040283529160200191611152565b820191906000526020600020905b81548152906001019060200180831161113557829003601f168201915b50505050508152505083838151811061116e5761116d6137b2565b5b6020026020010181905250818061118490613c4a565b9250505b8080600101915050610f2b565b50819350505050919050565b6111a9612837565b60005b6003805490508110156115f55782600382815481106111ce576111cd6137b2565b5b90600052602060002090600802016000015414801561121c5750600381815481106111fc576111fb6137b2565b5b906000526020600020906008020160070160009054906101000a900460ff165b156115e85760038181548110611235576112346137b2565b5b9060005260206000209060080201604051806101000160405290816000820154815260200160018201805461126990613781565b80601f016020809104026020016040519081016040528092919081815260200182805461129590613781565b80156112e25780601f106112b7576101008083540402835291602001916112e2565b820191906000526020600020905b8154815290600101906020018083116112c557829003601f168201915b505050505081526020016002820180546112fb90613781565b80601f016020809104026020016040519081016040528092919081815260200182805461132790613781565b80156113745780601f1061134957610100808354040283529160200191611374565b820191906000526020600020905b81548152906001019060200180831161135757829003601f168201915b5050505050815260200160038201805461138d90613781565b80601f01602080910402602001604051908101604052809291908181526020018280546113b990613781565b80156114065780601f106113db57610100808354040283529160200191611406565b820191906000526020600020905b8154815290600101906020018083116113e957829003601f168201915b5050505050815260200160048201805461141f90613781565b80601f016020809104026020016040519081016040528092919081815260200182805461144b90613781565b80156114985780601f1061146d57610100808354040283529160200191611498565b820191906000526020600020905b81548152906001019060200180831161147b57829003601f168201915b505050505081526020016005820180546114b190613781565b80601f01602080910402602001604051908101604052809291908181526020018280546114dd90613781565b801561152a5780601f106114ff5761010080835404028352916020019161152a565b820191906000526020600020905b81548152906001019060200180831161150d57829003601f168201915b5050505050815260200160068201805461154390613781565b80601f016020809104026020016040519081016040528092919081815260200182805461156f90613781565b80156115bc5780601f10611591576101008083540402835291602001916115bc565b820191906000526020600020905b81548152906001019060200180831161159f57829003601f168201915b505050505081526020016007820160009054906101000a900460ff161515151581525050915050611631565b80806001019150506111ac565b506040517f08c379a000000000000000000000000000000000000000000000000000000000815260040161162890613de8565b60405180910390fd5b919050565b600080604051806080016040528060055481526020018681526020018581526020018481525090506004819080600181540180825580915050600190039060005260206000209060040201600090919091909150600082015181600001556020820151816001015560408201518160020190816116b39190613ac4565b5060608201518160030190816116c99190613ac4565b505050600560008154809291906116df90613c4a565b919050555060019150509392505050565b60606000805b60048054905081101561174b578360048281548110611718576117176137b2565b5b9060005260206000209060040201600101540361173e57818061173a90613c4a565b9250505b80806001019150506116f6565b5060008167ffffffffffffffff81111561176857611767612b0b565b5b6040519080825280602002602001820160405280156117a157816020015b61178e61287e565b8152602001906001900390816117865790505b5090506000805b6004805490508110156119805785600482815481106117ca576117c96137b2565b5b9060005260206000209060040201600101540361197357600481815481106117f5576117f46137b2565b5b9060005260206000209060040201604051806080016040529081600082015481526020016001820154815260200160028201805461183290613781565b80601f016020809104026020016040519081016040528092919081815260200182805461185e90613781565b80156118ab5780601f10611880576101008083540402835291602001916118ab565b820191906000526020600020905b81548152906001019060200180831161188e57829003601f168201915b505050505081526020016003820180546118c490613781565b80601f01602080910402602001604051908101604052809291908181526020018280546118f090613781565b801561193d5780601f106119125761010080835404028352916020019161193d565b820191906000526020600020905b81548152906001019060200180831161192057829003601f168201915b505050505081525050838381518110611959576119586137b2565b5b6020026020010181905250818061196f90613c4a565b9250505b80806001019150506117a8565b50819350505050919050565b6000806040518060a001604052806007548152602001878152602001868152602001858152602001848152509050600681908060018154018082558091505060019003906000526020600020906005020160009091909190915060008201518160000155602082015181600101556040820151816002019081611a0f9190613ac4565b506060820151816003019081611a259190613ac4565b506080820151816004019081611a3b9190613ac4565b50505060076000815480929190611a5190613c4a565b91905055506001915050949350505050565b611a6b6128a6565b60005b600180549050811015611d5657828051906020012060018281548110611a9757611a966137b2565b5b9060005260206000209060050201600101604051611ab59190613884565b604051809103902003611d495760018181548110611ad657611ad56137b2565b5b90600052602060002090600502016040518060a001604052908160008201548152602001600182018054611b0990613781565b80601f0160208091040260200160405190810160405280929190818152602001828054611b3590613781565b8015611b825780601f10611b5757610100808354040283529160200191611b82565b820191906000526020600020905b815481529060010190602001808311611b6557829003601f168201915b50505050508152602001600282018054611b9b90613781565b80601f0160208091040260200160405190810160405280929190818152602001828054611bc790613781565b8015611c145780601f10611be957610100808354040283529160200191611c14565b820191906000526020600020905b815481529060010190602001808311611bf757829003601f168201915b50505050508152602001600382018054611c2d90613781565b80601f0160208091040260200160405190810160405280929190818152602001828054611c5990613781565b8015611ca65780601f10611c7b57610100808354040283529160200191611ca6565b820191906000526020600020905b815481529060010190602001808311611c8957829003601f168201915b50505050508152602001600482018054611cbf90613781565b80601f0160208091040260200160405190810160405280929190818152602001828054611ceb90613781565b8015611d385780601f10611d0d57610100808354040283529160200191611d38565b820191906000526020600020905b815481529060010190602001808311611d1b57829003601f168201915b505050505081525050915050611d92565b8080600101915050611a6e565b506040517f08c379a0000000000000000000000000000000000000000000000000000000008152600401611d8990613e54565b60405180910390fd5b919050565b600080600090505b600480549050811015611e4e578260048281548110611dc157611dc06137b2565b5b90600052602060002090600402016001015403611e41576040518060400160405280600181526020017f300000000000000000000000000000000000000000000000000000000000000081525060048281548110611e2257611e216137b2565b5b90600052602060002090600402016003019081611e3f9190613ac4565b505b8080600101915050611d9f565b5060019050919050565b600080600090505b600180549050811015611f1c57838051906020012060018281548110611e8957611e886137b2565b5b9060005260206000209060050201600101604051611ea79190613884565b604051809103902003611f0f57828051906020012060018281548110611ed057611ecf6137b2565b5b9060005260206000209060050201600401604051611eee9190613884565b604051809103902003611f05576001915050611f22565b6000915050611f22565b8080600101915050611e60565b50600090505b92915050565b60008060405180610100016040528060025481526020018981526020018881526020018781526020018681526020018581526020018481526020016001151581525090506003819080600181540180825580915050600190039060005260206000209060080201600090919091909150600082015181600001556020820151816001019081611fb79190613ac4565b506040820151816002019081611fcd9190613ac4565b506060820151816003019081611fe39190613ac4565b506080820151816004019081611ff99190613ac4565b5060a082015181600501908161200f9190613ac4565b5060c08201518160060190816120259190613ac4565b5060e08201518160070160006101000a81548160ff02191690831515021790555050507fb0b1b5b61bc0dbb800dfdecd756ac304fe33d3a63c2ac5dc419452555c99a829600254898860405161207d93929190613e74565b60405180910390a16002600081548092919061209890613c4a565b919050555060019150509695505050505050565b60606000805b60038054905081101561211357600381815481106120d3576120d26137b2565b5b906000526020600020906008020160070160009054906101000a900460ff161561210657818061210290613c4a565b9250505b80806001019150506120b2565b5060008167ffffffffffffffff8111156121305761212f612b0b565b5b60405190808252806020026020018201604052801561216957816020015b612156612837565b81526020019060019003908161214e5790505b5090506000805b6003805490508110156125ae5760038181548110612191576121906137b2565b5b906000526020600020906008020160070160009054906101000a900460ff16156125a157600381815481106121c9576121c86137b2565b5b906000526020600020906008020160405180610100016040529081600082015481526020016001820180546121fd90613781565b80601f016020809104026020016040519081016040528092919081815260200182805461222990613781565b80156122765780601f1061224b57610100808354040283529160200191612276565b820191906000526020600020905b81548152906001019060200180831161225957829003601f168201915b5050505050815260200160028201805461228f90613781565b80601f01602080910402602001604051908101604052809291908181526020018280546122bb90613781565b80156123085780601f106122dd57610100808354040283529160200191612308565b820191906000526020600020905b8154815290600101906020018083116122eb57829003601f168201915b5050505050815260200160038201805461232190613781565b80601f016020809104026020016040519081016040528092919081815260200182805461234d90613781565b801561239a5780601f1061236f5761010080835404028352916020019161239a565b820191906000526020600020905b81548152906001019060200180831161237d57829003601f168201915b505050505081526020016004820180546123b390613781565b80601f01602080910402602001604051908101604052809291908181526020018280546123df90613781565b801561242c5780601f106124015761010080835404028352916020019161242c565b820191906000526020600020905b81548152906001019060200180831161240f57829003601f168201915b5050505050815260200160058201805461244590613781565b80601f016020809104026020016040519081016040528092919081815260200182805461247190613781565b80156124be5780601f10612493576101008083540402835291602001916124be565b820191906000526020600020905b8154815290600101906020018083116124a157829003601f168201915b505050505081526020016006820180546124d790613781565b80601f016020809104026020016040519081016040528092919081815260200182805461250390613781565b80156125505780601f1061252557610100808354040283529160200191612550565b820191906000526020600020905b81548152906001019060200180831161253357829003601f168201915b505050505081526020016007820160009054906101000a900460ff161515151581525050838381518110612587576125866137b2565b5b6020026020010181905250818061259d90613c4a565b9250505b8080600101915050612170565b5081935050505090565b600080600090505b6003805490508110156126855782600382815481106125e2576125e16137b2565b5b906000526020600020906008020160000154036126785760006003828154811061260f5761260e6137b2565b5b906000526020600020906008020160070160006101000a81548160ff0219169083151502179055507fc341cf326465fe622f86c468249e8c0cb03ed23ba376a6a34863a1374ac7d769836040516126669190613eb9565b60405180910390a160019150506126c1565b80806001019150506125c0565b506040517f08c379a00000000000000000000000000000000000000000000000000000000081526004016126b890613de8565b60405180910390fd5b919050565b600080600090505b6003805490508110156127c65783600382815481106126f0576126ef6137b2565b5b90600052602060002090600802016000015414801561273e57506003818154811061271e5761271d6137b2565b5b906000526020600020906008020160070160009054906101000a900460ff165b156127b9578260038281548110612758576127576137b2565b5b906000526020600020906008020160030190816127759190613ac4565b507f7271245d4c0e6ecb7b215a1e937a2779d1aeb51318c042c9b05d0a446a58800984846040516127a7929190613f20565b60405180910390a16001915050612802565b80806001019150506126ce565b506040517f08c379a00000000000000000000000000000000000000000000000000000000081526004016127f990613de8565b60405180910390fd5b92915050565b6040518060a0016040528060008152602001600081526020016060815260200160608152602001606081525090565b604051806101000160405280600081526020016060815260200160608152602001606081526020016060815260200160608152602001606081526020016000151581525090565b6040518060800160405280600081526020016000815260200160608152602001606081525090565b6040518060a0016040528060008152602001606081526020016060815260200160608152602001606081525090565b600081519050919050565b600082825260208201905092915050565b6000819050602082019050919050565b6000819050919050565b61291481612901565b82525050565b600081519050919050565b600082825260208201905092915050565b60005b83811015612954578082015181840152602081019050612939565b60008484015250505050565b6000601f19601f8301169050919050565b600061297c8261291a565b6129868185612925565b9350612996818560208601612936565b61299f81612960565b840191505092915050565b600060a0830160008301516129c2600086018261290b565b50602083015184820360208601526129da8282612971565b915050604083015184820360408601526129f48282612971565b91505060608301518482036060860152612a0e8282612971565b91505060808301518482036080860152612a288282612971565b9150508091505092915050565b6000612a4183836129aa565b905092915050565b6000602082019050919050565b6000612a61826128d5565b612a6b81856128e0565b935083602082028501612a7d856128f1565b8060005b85811015612ab95784840389528151612a9a8582612a35565b9450612aa583612a49565b925060208a01995050600181019050612a81565b50829750879550505050505092915050565b60006020820190508181036000830152612ae58184612a56565b905092915050565b6000604051905090565b600080fd5b600080fd5b600080fd5b600080fd5b7f4e487b7100000000000000000000000000000000000000000000000000000000600052604160045260246000fd5b612b4382612960565b810181811067ffffffffffffffff82111715612b6257612b61612b0b565b5b80604052505050565b6000612b75612aed565b9050612b818282612b3a565b919050565b600067ffffffffffffffff821115612ba157612ba0612b0b565b5b612baa82612960565b9050602081019050919050565b82818337600083830152505050565b6000612bd9612bd484612b86565b612b6b565b905082815260208101848484011115612bf557612bf4612b06565b5b612c00848285612bb7565b509392505050565b600082601f830112612c1d57612c1c612b01565b5b8135612c2d848260208601612bc6565b91505092915050565b60008060008060808587031215612c5057612c4f612af7565b5b600085013567ffffffffffffffff811115612c6e57612c6d612afc565b5b612c7a87828801612c08565b945050602085013567ffffffffffffffff811115612c9b57612c9a612afc565b5b612ca787828801612c08565b935050604085013567ffffffffffffffff811115612cc857612cc7612afc565b5b612cd487828801612c08565b925050606085013567ffffffffffffffff811115612cf557612cf4612afc565b5b612d0187828801612c08565b91505092959194509250565b60008115159050919050565b612d2281612d0d565b82525050565b6000602082019050612d3d6000830184612d19565b92915050565b612d4c81612901565b8114612d5757600080fd5b50565b600081359050612d6981612d43565b92915050565b60008060408385031215612d8657612d85612af7565b5b6000612d9485828601612d5a565b925050602083013567ffffffffffffffff811115612db557612db4612afc565b5b612dc185828601612c08565b9150509250929050565b600081519050919050565b600082825260208201905092915050565b6000819050602082019050919050565b6000608083016000830151612e0f600086018261290b565b506020830151612e22602086018261290b565b5060408301518482036040860152612e3a8282612971565b91505060608301518482036060860152612e548282612971565b9150508091505092915050565b6000612e6d8383612df7565b905092915050565b6000602082019050919050565b6000612e8d82612dcb565b612e978185612dd6565b935083602082028501612ea985612de7565b8060005b85811015612ee55784840389528151612ec68582612e61565b9450612ed183612e75565b925060208a01995050600181019050612ead565b50829750879550505050505092915050565b60006020820190508181036000830152612f118184612e82565b905092915050565b600081519050919050565b600082825260208201905092915050565b6000819050602082019050919050565b600060a083016000830151612f5d600086018261290b565b506020830151612f70602086018261290b565b5060408301518482036040860152612f888282612971565b91505060608301518482036060860152612fa28282612971565b91505060808301518482036080860152612fbc8282612971565b9150508091505092915050565b6000612fd58383612f45565b905092915050565b6000602082019050919050565b6000612ff582612f19565b612fff8185612f24565b93508360208202850161301185612f35565b8060005b8581101561304d578484038952815161302e8582612fc9565b945061303983612fdd565b925060208a01995050600181019050613015565b50829750879550505050505092915050565b600060208201905081810360008301526130798184612fea565b905092915050565b60006020828403121561309757613096612af7565b5b60006130a584828501612d5a565b91505092915050565b6130b781612d0d565b82525050565b6000610100830160008301516130d6600086018261290b565b50602083015184820360208601526130ee8282612971565b915050604083015184820360408601526131088282612971565b915050606083015184820360608601526131228282612971565b9150506080830151848203608086015261313c8282612971565b91505060a083015184820360a08601526131568282612971565b91505060c083015184820360c08601526131708282612971565b91505060e083015161318560e08601826130ae565b508091505092915050565b600060208201905081810360008301526131aa81846130bd565b905092915050565b6000806000606084860312156131cb576131ca612af7565b5b60006131d986828701612d5a565b935050602084013567ffffffffffffffff8111156131fa576131f9612afc565b5b61320686828701612c08565b925050604084013567ffffffffffffffff81111561322757613226612afc565b5b61323386828701612c08565b9150509250925092565b6000806000806080858703121561325757613256612af7565b5b600061326587828801612d5a565b945050602085013567ffffffffffffffff81111561328657613285612afc565b5b61329287828801612c08565b935050604085013567ffffffffffffffff8111156132b3576132b2612afc565b5b6132bf87828801612c08565b925050606085013567ffffffffffffffff8111156132e0576132df612afc565b5b6132ec87828801612c08565b91505092959194509250565b60006020828403121561330e5761330d612af7565b5b600082013567ffffffffffffffff81111561332c5761332b612afc565b5b61333884828501612c08565b91505092915050565b600060a083016000830151613359600086018261290b565b50602083015184820360208601526133718282612971565b9150506040830151848203604086015261338b8282612971565b915050606083015184820360608601526133a58282612971565b915050608083015184820360808601526133bf8282612971565b9150508091505092915050565b600060208201905081810360008301526133e68184613341565b905092915050565b6000806040838503121561340557613404612af7565b5b600083013567ffffffffffffffff81111561342357613422612afc565b5b61342f85828601612c08565b925050602083013567ffffffffffffffff8111156134505761344f612afc565b5b61345c85828601612c08565b9150509250929050565b60008060008060008060c0878903121561348357613482612af7565b5b600087013567ffffffffffffffff8111156134a1576134a0612afc565b5b6134ad89828a01612c08565b965050602087013567ffffffffffffffff8111156134ce576134cd612afc565b5b6134da89828a01612c08565b955050604087013567ffffffffffffffff8111156134fb576134fa612afc565b5b61350789828a01612c08565b945050606087013567ffffffffffffffff81111561352857613527612afc565b5b61353489828a01612c08565b935050608087013567ffffffffffffffff81111561355557613554612afc565b5b61356189828a01612c08565b92505060a087013567ffffffffffffffff81111561358257613581612afc565b5b61358e89828a01612c08565b9150509295509295509295565b600081519050919050565b600082825260208201905092915050565b6000819050602082019050919050565b6000610100830160008301516135e0600086018261290b565b50602083015184820360208601526135f88282612971565b915050604083015184820360408601526136128282612971565b9150506060830151848203606086015261362c8282612971565b915050608083015184820360808601526136468282612971565b91505060a083015184820360a08601526136608282612971565b91505060c083015184820360c086015261367a8282612971565b91505060e083015161368f60e08601826130ae565b508091505092915050565b60006136a683836135c7565b905092915050565b6000602082019050919050565b60006136c68261359b565b6136d081856135a6565b9350836020820285016136e2856135b7565b8060005b8581101561371e57848403895281516136ff858261369a565b945061370a836136ae565b925060208a019950506001810190506136e6565b50829750879550505050505092915050565b6000602082019050818103600083015261374a81846136bb565b905092915050565b7f4e487b7100000000000000000000000000000000000000000000000000000000600052602260045260246000fd5b6000600282049050600182168061379957607f821691505b6020821081036137ac576137ab613752565b5b50919050565b7f4e487b7100000000000000000000000000000000000000000000000000000000600052603260045260246000fd5b600081905092915050565b60008190508160005260206000209050919050565b6000815461380e81613781565b61381881866137e1565b9450600182166000811461383357600181146138485761387b565b60ff198316865281151582028601935061387b565b613851856137ec565b60005b8381101561387357815481890152600182019150602081019050613854565b838801955050505b50505092915050565b60006138908284613801565b915081905092915050565b600082825260208201905092915050565b7f456d61696c20616c726561647920726567697374657265640000000000000000600082015250565b60006138e260188361389b565b91506138ed826138ac565b602082019050919050565b60006020820190508181036000830152613911816138d5565b9050919050565b60008190508160005260206000209050919050565b60006020601f8301049050919050565b600082821b905092915050565b60006008830261397a7fffffffffffffffffffffffffffffffffffffffffffffffffffffffffffffffff8261393d565b613984868361393d565b95508019841693508086168417925050509392505050565b6000819050919050565b60006139c16139bc6139b784612901565b61399c565b612901565b9050919050565b6000819050919050565b6139db836139a6565b6139ef6139e7826139c8565b84845461394a565b825550505050565b600090565b613a046139f7565b613a0f8184846139d2565b505050565b5b81811015613a3357613a286000826139fc565b600181019050613a15565b5050565b601f821115613a7857613a4981613918565b613a528461392d565b81016020851015613a61578190505b613a75613a6d8561392d565b830182613a14565b50505b505050565b600082821c905092915050565b6000613a9b60001984600802613a7d565b1980831691505092915050565b6000613ab48383613a8a565b9150826002028217905092915050565b613acd8261291a565b67ffffffffffffffff811115613ae657613ae5612b0b565b5b613af08254613781565b613afb828285613a37565b600060209050601f831160018114613b2e5760008415613b1c578287015190505b613b268582613aa8565b865550613b8e565b601f198416613b3c86613918565b60005b82811015613b6457848901518255600182019150602085019450602081019050613b3f565b86831015613b815784890151613b7d601f891682613a8a565b8355505b6001600288020188555050505b505050505050565b6000613ba18261291a565b613bab818561389b565b9350613bbb818560208601612936565b613bc481612960565b840191505092915050565b60006060820190508181036000830152613be98186613b96565b90508181036020830152613bfd8185613b96565b90508181036040830152613c118184613b96565b9050949350505050565b7f4e487b7100000000000000000000000000000000000000000000000000000000600052601160045260246000fd5b6000613c5582612901565b91507fffffffffffffffffffffffffffffffffffffffffffffffffffffffffffffffff8203613c8757613c86613c1b565b5b600182019050919050565b7f4f72646572206e6f7420666f756e640000000000000000000000000000000000600082015250565b6000613cc8600f8361389b565b9150613cd382613c92565b602082019050919050565b60006020820190508181036000830152613cf781613cbb565b9050919050565b613d0781612901565b82525050565b7f73746f636b000000000000000000000000000000000000000000000000000000600082015250565b6000613d4360058361389b565b9150613d4e82613d0d565b602082019050919050565b6000606082019050613d6e6000830185613cfe565b8181036020830152613d7f81613d36565b90508181036040830152613d938184613b96565b90509392505050565b7f50726f64756374206e6f7420666f756e64000000000000000000000000000000600082015250565b6000613dd260118361389b565b9150613ddd82613d9c565b602082019050919050565b60006020820190508181036000830152613e0181613dc5565b9050919050565b7f55736572206e6f7420666f756e64000000000000000000000000000000000000600082015250565b6000613e3e600e8361389b565b9150613e4982613e08565b602082019050919050565b60006020820190508181036000830152613e6d81613e31565b9050919050565b6000606082019050613e896000830186613cfe565b8181036020830152613e9b8185613b96565b90508181036040830152613eaf8184613b96565b9050949350505050565b6000602082019050613ece6000830184613cfe565b92915050565b7f7072696365000000000000000000000000000000000000000000000000000000600082015250565b6000613f0a60058361389b565b9150613f1582613ed4565b602082019050919050565b6000606082019050613f356000830185613cfe565b8181036020830152613f4681613efd565b90508181036040830152613f5a8184613b96565b9050939250505056fea264697066735822122043d77d1f1e458fcd7a3dad5ffd75e33fbd2b745b4a130b9f9c2c15ad43ac365364736f6c63430008180033",
  "linkReferences": {},
  "deployedLinkReferences": {}
}